:100000000C9434000C9446000C9446000C9446006A
:100010000C9446000C9446000C9446000C94480046
:100020000C9446000C9446000C9446000C94460038
:100030000C9446000C9446000C9406010C94460067
:100040000C9446000C9446000C9456000C948200CC
:100050000C9446000C94C9000C9446000C94BC000F
:100060000C9446000C94460011241FBECFEFD8E03C
:10007000DEBFCDBF21E0A0E0B1E001C01D92AA30FB
:10008000B207E1F70E944F010C9489010C94000023
:100090001F920F920FB60F921124299901C02A992D
:1000A0002B9A0F900FBE0F901F9018951F920F92D2
:1000B0000FB60F9211248F939F93EF93FF9380912C
:1000C00004018230B0F4E82FF0E09091C600EA5FBE
:1000D000FE4F9083813021F081E08093040109C0BC
:1000E000109204019091C1009F779093C10080937A
:1000F0000501FF91EF919F918F910F900FBE0F908F
:100100001F9018951F920F920FB60F9211248F9384
:100110009F9380910301833040F5813049F0823014
:1001200061F080910801909109019093C60009C087
:10013000809108019091090102C08091070180938C
:10014000C600809103018F5F833019F08093030113
:100150000CC0109203018091C1008F7D8093C1007B
:100160008091C10080688093C1009F918F910F9012
:100170000FBE0F901F9018951F920F920FB60F92FF
:1001800011241092B2002B980F900FBE0F901F9069
:1001900018951F920F920FB60F9211242F933F9331
:1001A0008F939F9320917800309179008091010185
:1001B00090910201280F391F309302012093010111
:1001C0008091780090917900280F391F30930201B7
:1001D0002093010180910001843178F48F5F809336
:1001E0000001843151F430930901209308011092E9
:1001F000020110920101109200019F918F913F9195
:100200002F910F900FBE0F901F9018951F920F9275
:100210000FB60F9211240F900FBE0F901F901895DC
:10022000E1E6F0E080E88083108292E094BD83E014
:1002300085BD16BC29EF27BD18BC90936E0021E048
:1002400020937E0020E420937C002FEA20937A0004
:1002500080937B001092B6001092B00027E02093AC
:10026000B1001092B2002EE22093B3001092B400BD
:100270009093700098E090BF80937F001092C00030
:1002800088E98093C10086E08093C2001092C50087
:1002900089E18093C40084B18F6084B908950E947D
:1002A0001001789461E070E0809105018823E1F30A
:1002B000809106018093B30080E090E020910701D7
:1002C00030E0082E02C0359527950A94E2F720FF0A
:1002D00009C045B19B01082E01C0220F0A94EAF71C
:1002E000242B0AC035B1AB01082E01C0440F0A947B
:1002F000EAF7242F2095232325B901968330910511
:10030000E9F68091C10080628093C10010920501DE
:06031000CBCFF894FFCFF3
:00000001FF
